:020000040800F2
:100000000004002047010008D9020008DB020008B4
:10001000DF020008E3020008E70200080000000019
:10002000000000000000000000000000EB020008DB
:10003000ED02000800000000EF020008F1020008D5
:1000400067010008670100086701000867010008F0
:1000500067010008670100086701000867010008E0
:1000600067010008670100086701000867010008D0
:1000700067010008670100086701000867010008C0
:1000800067010008670100086701000867010008B0
:1000900033040008670100086701000867010008D1
:1000A0006701000867010008670100086701000890
:1000B0006701000867010008670100086701000880
:1000C0006701000867010008670100086701000870
:1000D0006701000867010008670100086701000860
:1000E0006701000867010008670100086701000850
:1000F0006701000867010008670100086701000840
:10010000670100086701000867010008670100082F
:10011000670100086701000867010008670100081F
:10012000670100086701000867010008670100080F
:10013000DFF80CD001F0DEFC00480047590200084F
:1001400020020020704708488047084981F308884A
:1001500007480047FEE7FEE7FEE7FEE7FEE7FEE7AB
:10016000FEE7FEE7FEE7FEE745010008200200206B
:100170003101000808B50121042000F07FFF0121B2
:10018000082000F07BFF4FF44050ADF80000012044
:100190008DF8020048208DF8030069464A4800F0B7
:1001A000D7FC4FF48070ADF8000001208DF80200FC
:1001B00048208DF803006946444800F0C9FC08BD9A
:1001C00010B54FF40051404800F053FDF0B94048DD
:1001D00000F093F94FF400513B4800F04AFDA8B9F4
:1001E00000BF4FF40051384800F043FD0028F8D01C
:1001F0007721552000F003F94FF40041324800F018
:1002000052FD4FF48041304800F04DFD4FF48051D5
:100210002D4800F02EFDF0B92D4800F06EF94FF496
:100220008051294800F025FDA8B900BF4FF4805146
:10023000254800F01EFD0028F8D0BB21992000F0D1
:10024000DEF84FF40041204800F02DFD4FF48041CE
:100250001D4800F028FD10BD1FB51E4B0FCB8DE8CB
:100260000F0001F01CFCFFF785FF00F021F900F002
:100270005BF900F058F800F03DF800F079F800F074
:1002800004FA00F0B7FA002000F0E3F9022200219E
:10029000042000F029FA02220021062000F024FAAE
:1002A00002220021084600F01FFA02220021104617
:1002B00000F01AFA10236A460121002000F0A7FB83
:1002C00001E0FFF77DFFFCE7000C01400008014062
:1002D00040420F00381B0008704700BFFEE700BF18
:1002E000FEE700BFFEE700BFFEE7704770477047BC
:1002F0007047000008B54FF4E06001F0F1FA00210A
:100300004FF0006001F024FB14208DF80000002065
:100310008DF801008DF8020001208DF80300684679
:1003200001F0E3FA08BD08B50121092000F0A6FE9E
:100330000121480600F0AFFE4FF48070ADF80000D8
:1003400048208DF803006946574800F001FC4FF43F
:100350000070ADF8000018208DF80300694652487F
:1003600000F0F6FB01214FF4EA1000F0C0FC08BDDC
:1003700000B587B04D4800F0E9FE04A801F003F88D
:1003800000208DF810008DF811008DF812008DF806
:1003900013008DF814008DF815008DF816008DF8F7
:1003A000170002208DF8180001208DF819003C205C
:1003B000ADF81A0004A93D4800F0DAFE01208DF8DE
:1003C000000000208DF8010001208DF802000020BF
:1003D000ADF80400ADF80600ADF80800ADF80A006D
:1003E000ADF80C0001208DF80E00684600F04AFFC1
:1003F000012202212D4800F0D6FF07B000BD30B524
:1004000085B004460D4600200090019004208DF830
:10041000080000208DF8090002208DF80A008DF8F0
:100420000B408DF80C506946204800F0C5FF05B020
:1004300030BD00B585B00020009001908DF8080017
:100440008DF80A008DF813008DF80B0000218DF84F
:100450000C106A46154801F0BCF89DF80B0099286D
:100460000DD19DF80C00BB2809D14FF400410E4876
:1004700000F01BFC4FF480410B4800F014FC9DF889
:100480000B0055280DD19DF80C00772809D14FF4A9
:100490000041054800F007FC4FF48041024800F09D
:1004A00004FC05B000BD0000000C014000640040E9
:1004B00008B50121082000F0E1FD4FF44040ADF8FF
:1004C000000010208DF8030003208DF8020069461B
:1004D000044800F03DFB4FF44041024800F0E3FBCC
:1004E00008BD0000000C014010B50346002001E0EB
:1004F0001A54401C8842FBDB10BD01B502E0009895
:10050000401E009000980028F9D108BD014608E07F
:1005100042F6DE6201E0531E9AB2002AFBDC4B1E5B
:1005200099B20029F4DC704708B50121042000F0DD
:10053000A5FD1F20ADF8000010208DF8030003205A
:100540008DF802006946A74800F002FB1F21A5486C
:1005500000F0ABFB0121A34800F0A5FB08BD70B57E
:10056000054602219F4800F0A0FB04219D4800F0B1
:100570009CFB00241FE0C4F1070045FA00F010F0D6
:10058000010F04D01021974800F08DFB03E01021EB
:10059000944800F08AFB0821924800F084FB052073
:1005A000FFF7ABFF08218F4800F07FFB0520FFF726
:1005B000A4FF601CC4B2082CDDDB0221894800F0D6
:1005C00072FB0421874800F06EFB0520FFF795FFC2
:1005D0000520FFF792FF70BD70B5054602218148E6
:1005E00000F063FB04217F4800F05DFB00241FE066
:1005F000C4F1070045FA00F010F0010F04D01021FB
:10060000784800F050FB03E01021764800F04DFBE5
:100610000821744800F047FB0520FFF76EFF082112
:10062000704800F042FB0520FFF767FF601CC4B272
:10063000082CDDDB02216B4800F035FB0421694802
:1006400000F031FB0520FFF758FF0520FFF755FFAD
:1006500070BD70B50646002414E06349095D41F0A1
:10066000B000FFF77CFF1020FFF779FF0120FFF7B4
:1006700076FF002503E03046FFF7AEFF6D1C802DAE
:10068000F9DB641C082CE8DB70BD10B5E320FFF734
:1006900066FFA220FFF763FFA020FFF760FFC820DE
:1006A000FFF75DFF2F20FFF75AFF2420FFF757FFCA
:1006B0008120FFF754FF2120FFF751FFF820FFF7BB
:1006C0004EFF0820FFF74BFFB020FFF748FF102038
:1006D000FFF745FF0020FFF742FF0020FFF7B9FFBB
:1006E000AF20FFF73CFF10BD2DE9F04105460E4657
:1006F000174605F00F0506F00F0645F0B000FFF7AE
:100700002EFF1020FFF72BFF46F01000FFF727FF0A
:10071000002407E0354901EB0711085DFFF75CFF96
:10072000601CC4B2102CF5DB681CC5B245F0B000EB
:10073000FFF715FF1020FFF712FF46F01000FFF73C
:100740000EFF002408E0294A791C02EB0111085D24
:10075000FFF742FF601CC4B2102CF4DBBDE8F0814F
:100760002DE9F04105460F461646984605F00F055F
:1007700007F00F074FEA48604FEA106845F0B000F5
:10078000FFF7EDFE47F01000FFF7E9FE3046FFF7F8
:10079000E6FE002407E0164901EBC801085DFFF7FB
:1007A0001BFF601CC4B2082CF5DB681CC5B245F009
:1007B000B000FFF7D4FE47F01000FFF7D0FE304640
:1007C000FFF7CDFE002409E0094A08F1010102EB20
:1007D000C101085DFFF700FF601CC4B2082CF3DB09
:1007E000BDE8F0810008014000000020481B00081F
:1007F000881B000808B50121082000F03FFCC0203C
:10080000ADF8000003208DF8020014208DF80300DD
:1008100069469A4800F09CF9002008BD0A2000BFF4
:100820000100A0F10102D0B2FAD1704700B58020DA
:1008300092491031086040200860FFF7EFFF8F48B1
:100840000830006808B9012000E0002010F0800F97
:1008500001D0012000BD8020884914310860FFF7D5
:10086000DDFF86480830006810F0800F01D00220BC
:10087000F0E74020814914310860FFF7CFFF0020E6
:10088000E8E700B580207D49143108604020086009
:10089000FFF7C4FF4020794910310860FFF7BEFF21
:1008A0008020764910310860FFF7B8FF002000BDB6
:1008B00000B54020714914310860FFF7AFFF802078
:1008C0006E4914310860FFF7A9FF40206B491031D1
:1008D0000860FFF7A3FF4020684914310860FFF764
:1008E0009DFF002000BD00B5402064491431086020
:1008F000FFF794FF8020614910310860FFF78EFFF9
:1009000040205E4910310860FFF788FF40205B49B6
:1009100014310860FFF782FF002000BD00B54020C1
:10092000564914310860FFF779FF80205349103190
:100930000860FFF773FF4020504910310860FFF74F
:100940006DFF4E480830006810F0800F05D0402041
:100950004A4914310860002000BD40204749143145
:1009600008600120F8E710B5034608241BE040208A
:10097000424914310860FFF751FF13F0800F04D093
:1009800080203E491031086003E080203B4914314B
:1009900008605806030EFFF741FF40203749103129
:1009A0000860FFF73BFF2000A4F10101CCB2DED1CB
:1009B0004020324914310860002010BD10B50824D1
:1009C000002380202D491031086015E05806030EE1
:1009D00040202A4914310860FFF720FF40202749B2
:1009E00010310860FFF71AFF24480830006810F043
:1009F000800F01D043F001032000A4F10101CCB22B
:100A0000E4D140201D4914310860184610BD2DE97D
:100A1000F04180460D4616461F46FFF707FFA0200F
:100A2000FFF7A1FFFFF77AFF10B90220BDE8F081C0
:100A30004046FFF798FFFFF771FF08B90220F5E77E
:100A40002846FFF790FFFFF769FF08B90220EDE79E
:100A5000002408E0305DFFF786FFFFF75FFF08B96D
:100A60000220E3E7641CBC42F4DBFFF70AFF00202E
:100A7000DCE710B50446002010BD0000000C01406A
:100A800010B50446C549601A8C422FD009DCC44811
:100A9000201810D0B0F5806F16D0B0F5006F4AD195
:100AA0001BE0B0F5806F2AD0B0F5006F30D0B0F504
:100AB000406F40D135E00121042000F0F9FA002117
:100AC000042000F0F5FA37E00121082000F0F0FAE8
:100AD0000021082000F0ECFA2EE00121102000F0A7
:100AE000E7FA0021102000F0E3FA25E001212020A0
:100AF00000F0DEFA0021202000F0DAFA1CE00121EB
:100B0000402000F0D5FA0021402000F0D1FA13E097
:100B10000121802000F0CCFA0021802000F0C8FAEA
:100B20000AE00121080200F0C3FA00214FF48070AE
:100B300000F0BEFA00E000BF00BF10BD10B50121FB
:100B4000084600F0B5FA0021012000F0B1FA10BD0E
:100B50002DE9F04102460025002600200023002454
:100B6000002791F803C00CF00F0591F803C01CF0AA
:100B7000100F03D091F802C04CEA050591F800C0AF
:100B8000BCF1000F31D0146800202BE04FF0010CB5
:100B90000CFA00F3B1F800C00CEA03069E4220D123
:100BA00083004FF00F0C0CFA03F7BC4305FA03FC6B
:100BB0004CEA040491F803C0BCF1280F06D14FF0B1
:100BC000010C0CFA00FCC2F814C00AE091F803C052
:100BD000BCF1480F05D14FF0010C0CFA00FCC2F833
:100BE00010C0401C0828D1D31460B1F800C0BCF17B
:100BF000FF0F34DD546800202EE000F1080C4FF0A8
:100C0000010808FA0CF3B1F800C00CEA03069E4292
:100C100021D183004FF00F0C0CFA03F7BC4305FA07
:100C200003FC4CEA040491F803C0BCF1280F05D181
:100C300000F1080C08FA0CF8C2F8148091F803C00F
:100C4000BCF1480F07D100F1080C4FF0010808FA79
:100C50000CF8C2F81080401C0828CED35460BDE8C0
:100C6000F0814FF6FF710180022181700421C17073
:100C700070470246002093680B4201D0012000E03B
:100C8000002070470146886880B270470246002005
:100C9000D3680B4201D0012000E0002070470146DC
:100CA000C86880B2704701617047416170470AB1FE
:100CB000016100E041617047C16070474FF48032CC
:100CC0000A4382618161826182698269704702465A
:100CD0000020344B18684FF68073184040EA021029
:100CE0000843304B186070472F49C8617047F0B512
:100CF0000A4600230024002100252A4E7168C0F313
:100D0000034583B200F44016B6F5401F08D121F028
:100D10007061244E766826F07066224F7E6012E085
:100D200000F48016B6F5801F06D1032606FA05F4F6
:100D3000A14341F0706106E0460D360103FA06F664
:100D4000B14341F0706122B1460D360103FA06F657
:100D50003143144E7160F0BD30B500228B071C0F7B
:100D60000F2303FA04F20F4B08338C1053F824308E
:100D700093430C4C08348D1044F8253023468C10D6
:100D800053F824308C07240F00FA04F42343054C55
:100D900008348D1044F8253030BD000000140140A7
:100DA00000F8FEBF0000014000002042DC4800685F
:100DB00040F00100DA49086008464068D949084017
:100DC000D749486008460068D7490840D4490860B8
:100DD0000846006820F4802008600846406820F437
:100DE000FE004860002088607047CD49096821F402
:100DF0008031CB4A11601146096821F480211160CD
:100E0000B0F5803F03D0B0F5802F0ED106E0C44985
:100E1000096841F48031C24A116007E0C04909689D
:100E200041F4A021BE4A116000E000BF00BF70473E
:100E300010B501460022002300204A11012A02D1E8
:100E4000B74C236806E0022A02D1B54C236A01E0C0
:100E5000B34C636A01F01F02012494401C4201D08C
:100E6000012000E0002010BD38B5002000900024D3
:100E7000002500BF3120FFF7DBFF05460098401C2E
:100E800000901DB90098B0F5A06FF3D13120FFF7A5
:100E9000CFFF08B1012400E00024204638BD014600
:100EA00000209F4A106820F0F80040EAC10010605E
:100EB00070479E490860704702460020984B58686A
:100EC00020F47C1042EA01031843954B58607047A8
:100ED00096490866704701460020914A506820F004
:100EE00003000843506070478D48406800F00C00D4
:100EF0007047014600208A4A506820F0F0000843FD
:100F00005060704701460020854A506820F4E06038
:100F100008435060704701460020814A506820F421
:100F2000605040EAC1005060704729B17C4A527A53
:100F300002437B4B5A7204E0794A527A8243784BDF
:100F40005A7270477A490860704701460020744A17
:100F5000506820F440400843506070470021754AB3
:100F600011706F4A82F82010012802D0042808D19D
:100F700003E001216F4A117004E005216D4A1170F0
:100F800000E000BF00BF70476B49086070476449CC
:100F9000096A0143624A116270476749443908602F
:100FA000704730B500210022002400235C4D6D689D
:100FB00005F00C0121B1042905D0082923D105E051
:100FC0005E4D056022E05D4D05601FE0544D6D688B
:100FD00005F47012022505EB9242514D6D6805F43F
:100FE00080341CB9564D554305600BE04C4D6D687F
:100FF00015F4003F03D0524D5543056002E04F4DBC
:101000005543056002E04D4D056000BF00BF444DF3
:101010006D6805F0F00109094A4D6B5C0568DD401B
:1010200045603F4D6D6805F4E061090A454D6B5C14
:101030004568DD4085603A4D6D6805F46051C90A28
:10104000404D6B5C4568DD40C560354D6D6805F40D
:101050004041890B3C4D6B5CC568B5FBF3F5056100
:1010600030BD29B12E4A526902432D4B5A6104E02A
:101070002B4A526982432A4B5A61704729B1284A48
:1010800092690243264B9A6104E0254A92698243A1
:10109000234B9A61704729B1214AD2690243204B00
:1010A000DA6104E01E4AD26982431D4BDA6170475F
:1010B00029B11B4AD2680243194BDA6004E0184A8E
:1010C000D2688243164BDA60704729B1144A12691C
:1010D0000243134B1A6104E0114A12698243104B18
:1010E0001A61704714494039086070470F49C86455
:1010F00070470B49C87170470948406A40F08070DA
:1011000007494862704701460020054A92680A4232
:1011100001D0012000E0002070470149887270472B
:10112000001002400000FFF8FFFFF6FE0000424200
:10113000D8004242201002408004424200127A004D
:1011400000093D00080000201800002010B50446EA
:10115000FD48201809D101214806FFF7B6FF0021FC
:101160004FF00070FFF7B1FF00E000BF00BF10BDFF
:1011700030B5024600200023146824F002041460F5
:10118000146844F00104146000E05B1CA3F57F4484
:10119000FF3C03D0546814F0010FF6D0546814F0EB
:1011A000010F01D100206CE00C78012C04D11468EF
:1011B00044F08004146003E0146824F08004146098
:1011C0004C78012C04D1146844F04004146003E00E
:1011D000146824F0400414608C78012C04D1146845
:1011E00044F02004146003E0146824F02004146028
:1011F000CC78012C04D1146844F01004146003E08E
:10120000146824F0100414600C79012C04D11468C3
:1012100044F00804146003E0146824F00804146027
:101220004C79012C04D1146844F00404146003E0E8
:10123000146824F0040414608C79A407CD7944EA7E
:1012400005640D7A44EA05444D7A44EA05544D8913
:101250006D1E2C43D461146824F001041460002333
:1012600000E05B1CA3F57F44FF3C03D0546814F0FE
:10127000010FF6D1546814F0010F01D0002000E0F6
:10128000012030BD10B500210378012202FA03F1DC
:10129000AE4A126842F00102AC4B1A60AB4A1C32F3
:1012A00012688A43A94B1C331A608278CAB9A74ACC
:1012B0000C3212688A43A54B0C331A60C2884389EA
:1012C00042EA0343A14A4032047842F8343082882B
:1012D000038942EA03439D4A4032047802EBC40288
:1012E00053608278012A19D1984A0C3212680A4355
:1012F000964B0C331A60C288838842EA0343934AB0
:101300004032047842F834304289038942EA034388
:101310008E4A4032047802EBC402536042783AB9F4
:101320008A4A121D12688A43884B1B1D1A6006E008
:10133000864A121D12680A43844B1B1D1A6082895B
:1013400032B9824A143212688A43804B14331A60CD
:101350008289012A06D17D4A143212680A437B4BE6
:1013600014331A60827B012A06D1784A1C32126833
:101370000A43764B1C331A60744A126822F0010249
:10138000724B1A6010BD0021017041708170C170F4
:10139000017141718171C171032101720221417298
:1013A0000121418170471AB143690B43436102E057
:1013B00043698B434361704710B502460020936830
:1013C00003F08063B3F1806F00D110E0936803F005
:1013D0000063B3F1006F01D1012008E0936803F0CE
:1013E0008053B3F1805F01D1022000E00420042883
:1013F00074D002F5C07303EB00131B6803F0010403
:1014000002F5C07303EB00131C600B7A7BB94B7AB7
:101410000C8843EA445302F5C07404EB00142468BA
:10142000234302F5C07404EB0014236010E00B7A30
:101430004C6843EAC4034C7A234302F5C07404EBBE
:1014400000142468234302F5C07404EB00142360E5
:101450008B7A03F00F038B7202F5C07303EB00135A
:101460005B6823F00F0402F5C07303EB00135C60AC
:1014700002F5C07303EB00135B688C7A234302F51B
:10148000C07404EB001463608B7B1C064B7B44EA46
:1014900003440B7B44EA0323CC7A234302F5C07454
:1014A00004EB0014A3608B7C1C064B7C44EA0344D1
:1014B0000B7C44EA0323CC7B234302F5C07404EB8A
:1014C0000014E36002F5C07303EB00131B6843F0E4
:1014D000010402F5C07303EB00131C6010BD02464B
:1014E000002021B1012910D0022931D11CE09368DC
:1014F00003F0010340EA8300936803F002031843FA
:101500009368C3F38063184324E0936803F4807303
:1015100040EA9310936803F4007340EA1320936841
:10152000C3F3C063184315E0936803F4803340EAC3
:101530009330936803F4003340EA13409368C3F395
:101540000073184306E00000009CFFBF00660040E7
:10155000002000BF00BF20B1052804D0072806D115
:1015600003E0022005E0002003E0012001E000206C
:1015700000BF00BF704721B1012907D002290FD158
:1015800009E0826842F0800282600AE0826842F4E8
:101590000042826005E0826842F40002826000E05E
:1015A00000BF00BF704711B92022C26001E02022B5
:1015B000026170470246002019B9D36803F00300A6
:1015C00006E0012903D1136903F0030000E00020C5
:1015D000704730B505460C46134605F5D87000EB4C
:1015E0000410006800F004001872187A50B905F56C
:1015F000D87000EB0410006840F2FF7101EA50500F
:10160000186009E005F5D87000EB041000686FF071
:10161000604101EAD000586005F5D87000EB041075
:10162000006800F00200587205F5D87000EB041055
:10163000406800F00F00987205F5D87000EB0410B8
:101640004068000AD87405F5D87000EB0410806873
:10165000D87205F5D87000EB04108068010A197380
:1016600005F5D87000EB04108068010C597305F57E
:10167000D87000EB04108068000E987305F5D870E0
:1016800000EB0410C068D87305F5D87000EB0410A7
:10169000C068010A197405F5D87000EB0410C06821
:1016A000010C597405F5D87000EB0410C068000EE9
:1016B000987421462846FFF776FF30BD21B10268B5
:1016C00042F48032026003E0026822F48032026059
:1016D0007047014600200A6822F0010242F002022F
:1016E0000A604A6802F00302022A00D10120704712
:1016F00001464FF6FF7200200B6823F002030B60D7
:1017000000E0521E4B6803F00203022B01D1002AB5
:10171000F7D14B6803F00203022B00D00120704781
:101720000246002093690B4201D0012000E0002016
:10173000704782698A4382617047024600200A42EC
:1017400001D0012000E00020704770B504460D462E
:101750000026402D47D00EDC072D2BD006DC042DB3
:101760002FD0052D19D0062D61D11CE0082D2ED0CB
:10177000202D5CD131E0B5F5806F46D006DCB5F5A3
:10178000807F36D0B5F5007F51D138E0B5F5803F88
:1017900047D0B5F5003F4AD13DE0A0680121FFF7F1
:1017A000CCFF064645E0A0684FF48071FFF7C5FF07
:1017B00006463EE0A0684FF48031FFF7BEFF0646C4
:1017C00037E0E0680821FFF7B8FF064631E0E0683F
:1017D0001021FFF7B2FF06462BE020690821FFF732
:1017E000ACFF064625E020691021FFF7A6FF06465C
:1017F0001FE0A0690121FFF7A0FF064619E0A069DC
:101800000221FFF79AFF064613E0A0690421FFF7C3
:1018100094FF06460DE060681021FFF78EFF064634
:1018200007E060680821FFF788FF064601E0002610
:1018300000BF00BF304670BD402935D00EDC0729FF
:1018400025D006DC042926D0052919D0062943D144
:1018500019E0082922D020293ED122E0B1F5806F7D
:101860002FD006DCB1F5807F21D0B1F5007F33D1D8
:1018700022E0B1F5803F29D0B1F5003F2CD128E01E
:101880000122826029E04FF48072826025E04FF4EB
:101890008032826021E00822C2601EE01022C26015
:1018A0001BE00822026118E01022026115E0826943
:1018B00022F00102826110E0826922F0020282615C
:1018C0000BE0826922F00402826106E00822426095
:1018D00003E01022426000E000BF00BF704700003C
:1018E00031490143314A1160704770B5002100232E
:1018F0000F22C4780CB32D4C246804F4E064C4F5C2
:10190000E064210AC1F10403CA40447804FA03F1F7
:101910008478144021430901254C0678A1550478A8
:1019200004F01F050124AC4005786D114FF0E0264E
:1019300006EB8505C5F8004109E0047804F01F05B1
:101940000124AC401B4D0678761145F8264070BD49
:10195000194A0A400243154B1B1F1A60704739B1E0
:10196000124A121D12680243104B1B1D1A6006E03A
:101970000E4A121D126882430C4B1B1D1A607047E1
:10198000042808D14FF0E021096941F004014FF02B
:10199000E022116107E04FF0E021096921F0040124
:1019A0004FF0E022116170470000FA050CED00E0F5
:1019B00000E400E080E100E080FFFF1F0CB50020A4
:1019C000019000904748006840F480304549086025
:1019D00000BF4448006800F4003000900198401CAB
:1019E0000190009818B90198B0F5A06FF1D13D4869
:1019F000006810F4003F02D00120009001E00020B8
:101A000000900098012843D13748006840F010004A
:101A1000354908600846006820F003000860084661
:101A2000006840F0020008602E4840682D49486078
:101A30000846406848600846406840F48060486056
:101A40000846406820F47C1048600846406840F42E
:101A5000E81048600846006840F08070086000BFE9
:101A60002048006810F0007FFAD01E48406820F03F
:101A700003001C4948600846406840F00200486086
:101A800000BF1848406800F00C000828F9D101E0B8
:101A900000BFFEE70CBD10B5FFF790FF10BD10B5FD
:101AA0001048006840F001000E4908600846406890
:101AB0000E4908400B494860084600680C49084038
:101AC000084908600846006820F48020086008463D
:101AD000406820F4FE00486000208860FFF7DBFFCC
:101AE00010BD000000100240002002400000FFF87E
:101AF000FFFFF6FE064C074D06E0E06840F00103EC
:101B000094E8070098471034AC42F6D3FEF714FB74
:101B1000981B0008B81B000802E008C8121F08C183
:101B2000002AFAD170477047002001E001C1121F5E
:101B3000002AFBD1704700000102030405060708D4
:101B4000090000000000000000000000000000008C
:101B50000000000000000000000000000000000085
:101B600000000000000000001022640C8000FE92C3
:101B700092929292FF0200000404FE01407E4242D3
:101B80007E427E42427E4000F0F80CC40CF8F00029
:101B900003070C080C070300B81B00080000002016
:101BA0001C000000181B0008D41B00081C000020AB
:101BB00004020000281B00080302010007060504B8
:101BC00000000000010203040102030406070809E3
:041BD00002040608FD
:0400000508000147A7
:00000001FF
